:0C09310012093D75900812093D759004F4
:10093D00E4FFFE758901758CF8758ACCD28C308DEB
:10094D00FDC28CC28D0FBF00010EBE01E6BFF4E3E8
:01095D002277
:10080000E4FDFCED64024C605575900112093D75E4
:10081000900212093775900812093D75901012095F
:100820003D75902012093D75904012093D759080EC
:1008300012093D75908012093D75904012093D7571
:10084000902012093D75901012093175900212091D
:100850003D75900112093D0DBD00010C80A5E4FC21
:10086000FD12093D75901812093D75902412093D3D
:1008700075904212093D75901112093D7590111243
:10088000093D75904212093D75902412093D7590FD
:100890001812093D0DBD00010CED64024C70C2E45C
:1008A000FCFD12093D75901812093D75903C120926
:1008B0003D75907E12093D7590FF12093DE4F5905B
:1008C00012093D75908112093D7590C312093D755D
:1008D00090E712093D7590FF12093D0DBD00010C16
:1008E000ED64024C70BC12093D75902012093D75F3
:1008F000900112093775908012093775900212091C
:100900003D75901012093D75904012093D7590801B
:1009100012093175900112093D75901012093D754B
:10092000908012093D75902012093DE4FCFD0208FB
:0109300003C3
:0300000002095E94
:0C095E00787FE4F6D8FD758107020800E0
:00000001FF
